:020000040800F2
:1000000000C0002075330008AD2E0008AF2E000898
:10001000B12E0008B32E0008B52E00080000000025
:10002000000000000000000000000000B72E0008E3
:10003000B92E000800000000BB2E0008BD2E0008ED
:10004000B9330008B9330008B9330008B9330008E0
:10005000B9330008B9330008B9330008B9330008D0
:10006000B9330008B9330008B9330008352B00084C
:10007000B9330008B9330008B9330008B9330008B0
:10008000B9330008B9330008B9330008B9330008A0
:10009000B9330008B9330008B9330008B933000890
:1000A000B9330008B9330008B9330008B933000880
:1000B000B9330008B9330008B9330008B933000870
:1000C000B9330008B9330008B9330008B933000860
:1000D000B9330008B9330008B9330008B933000850
:1000E000B9330008B9330008B9330008B933000840
:1000F000B9330008B9330008B9330008B933000830
:10010000B9330008B9330008B9330008B93300081F
:10011000B9330008B9330008B9330008B93300080F
:10012000B9330008B9330008B9330008B9330008FF
:10013000B9330008B9330008B9330008B9330008EF
:10014000B9330008B9330008B9330008B9330008DF
:1001500010B5054C237833B9044B13B10448AFF301
:1001600000800123237010BDF0000020000000007B
:10017000703E000808B5034B1BB103490348AFF3B9
:10018000008008BD00000000F4000020703E000860
:10019000034613F8012B002AFBD1181A01387047C7
:1001A00001F0FF01102A2BDB10F0070F08D010F828
:1001B000013B013A8B422DD010F0070F42B3F6D12C
:1001C000F0B441EA012141EA014122F007047FF045
:1001D00000070023F0E80256083C85EA010586EA9C
:1001E000010685FA47F5A3FA87F586FA47F6A5FAD8
:1001F00087F68EB9EED1F0BC01F0FF0102F00702E4
:1002000032B110F8013B013A83EA010313B1F8D18E
:100210000020704701387047002D06BF354603386F
:10022000073815F0010F07D1013015F4807F02BFA8
:10023000013015F4C03F0130F0BC0138704700BFF9
:1002400081F0004102E000BF83F0004330B54FEA87
:1002500041044FEA430594EA050F08BF90EA020FF4
:100260001FBF54EA000C55EA020C7FEA645C7FEA87
:10027000655C00F0E2804FEA5454D4EB5555B8BFAA
:100280006D420CDD2C4480EA020281EA030382EA1B
:10029000000083EA010180EA020281EA0303362DAD
:1002A00088BF30BD11F0004F4FEA01314FF4801C80
:1002B0004CEA113102D0404261EB410113F0004F92
:1002C0004FEA03334CEA133302D0524263EB430349
:1002D00094EA050F00F0A780A4F10104D5F1200EE7
:1002E0000DDB02FA0EFC22FA05F2801841F1000142
:1002F00003FA0EF2801843FA05F359410EE0A5F116
:1003000020050EF1200E012A03FA0EFC28BF4CF046
:10031000020C43FA05F3C01851EBE37101F00045FC
:1003200007D54FF0000EDCF1000C7EEB00006EEB09
:100330000101B1F5801F1BD3B1F5001F0CD3490893
:100340005FEA30004FEA3C0C04F101044FEA4452EA
:1003500012F5800F80F09A80BCF1004F08BF5FEA71
:10036000500C50F1000041EB045141EA050130BD51
:100370005FEA4C0C404141EB010111F4801FA4F1F4
:100380000104E9D191F0000F04BF01460020B1FA49
:1003900081F308BF2033A3F10B03B3F120020CDA81
:1003A0000C3208DD02F1140CC2F10C0201FA0CF05F
:1003B00021FA02F10CE002F11402D8BFC2F1200CC4
:1003C00001FA02F120FA0CFCDCBF41EA0C0190407A
:1003D000E41AA2BF01EB0451294330BD6FEA0404C3
:1003E0001F3C1CDA0C340EDC04F11404C4F12002AE
:1003F00020FA04F001FA02F340EA030021FA04F3C0
:1004000045EA030130BDC4F10C04C4F1200220FA16
:1004100002F001FA04F340EA0300294630BD21FA54
:1004200004F0294630BD94F0000F83F4801306BF1A
:1004300081F480110134013D4EE77FEA645C18BF0E
:100440007FEA655C29D094EA050F08BF90EA020FA5
:1004500005D054EA000C04BF1946104630BD91EA9D
:10046000030F1EBF0021002030BD5FEA545C05D1A0
:100470004000494128BF41F0004130BD14F58004DF
:100480003CBF01F5801130BD01F0004545F0FE4153
:1004900041F470014FF0000030BD7FEA645C1ABF88
:1004A000194610467FEA655C1CBF0B46024650EABF
:1004B000013406BF52EA033591EA030F41F40021EB
:1004C00030BD00BF90F0000F04BF0021704730B571
:1004D0004FF4806404F132044FF000054FF0000146
:1004E00050E700BF90F0000F04BF0021704730B507
:1004F0004FF4806404F1320410F0004548BF4042DC
:100500004FF000013EE700BF42004FEAE2014FEA30
:1005100031014FEA02701FBF12F07F4393F07F4F0B
:1005200081F06051704732F07F4208BF704793F00E
:100530007F4F04BF41F40021704730B54FF4607421
:1005400001F0004521F000411CE700BF50EA010224
:1005500008BF704730B54FF000050AE050EA0102CD
:1005600008BF704730B511F0004502D5404261EB3D
:1005700041014FF4806404F132045FEA915C3FF47E
:10058000D8AE4FF003025FEADC0C18BF03325FEA1B
:10059000DC0C18BF033202EBDC02C2F1200300FACC
:1005A00003FC20FA02F001FA03FE40EA0E0021FAF1
:1005B00002F11444BDE600BF70B54FF0FF0C4CF4DF
:1005C000E06C1CEA11541DBF1CEA135594EA0C0F91
:1005D00095EA0C0F00F0DEF82C4481EA030621EACC
:1005E0004C5123EA4C5350EA013518BF52EA033507
:1005F00041F4801143F4801338D0A0FB02CE4FF0B9
:100600000005E1FB02E506F00042E0FB03E54FF0E8
:100610000006E1FB03569CF0000F18BF4EF0010EE0
:10062000A4F1FF04B6F5007F64F5407404D25FEADC
:100630004E0E6D4146EB060642EAC62141EA55518F
:100640004FEAC52040EA5E504FEACE2EB4F1FD0CD1
:1006500088BFBCF5E06F1ED8BEF1004F08BF5FEA4F
:10066000500E50F1000041EB045170BD06F0004601
:1006700046EA010140EA020081EA0301B4EB5C04AE
:10068000C2BFD4EB0C0541EA045170BD41F48011A6
:100690004FF0000E013C00F3AB8014F1360FDEBFCB
:1006A000002001F0004170BDC4F10004203C35DAA7
:1006B0000C341BDC04F11404C4F1200500FA05F32A
:1006C00020FA04F001FA05F240EA020001F00042CB
:1006D00021F0004110EBD37021FA04F642EB060141
:1006E0005EEA430E08BF20EAD37070BDC4F10C046B
:1006F000C4F1200500FA04F320FA05F001FA04F22F
:1007000040EA020001F0004110EBD37041F100011A
:100710005EEA430E08BF20EAD37070BDC4F1200525
:1007200000FA05F24EEA020E20FA04F301FA05F28D
:1007300043EA020321FA04F001F0004121FA04F235
:1007400020EA020000EBD3705EEA430E08BF20EA05
:10075000D37070BD94F0000F0FD101F0004640003F
:1007600041EB010111F4801F08BF013CF7D041EAC1
:10077000060195F0000F18BF704703F000465200C5
:1007800043EB030313F4801F08BF013DF7D043EA96
:100790000603704794EA0C0F0CEA135518BF95EA4C
:1007A0000C0F0CD050EA410618BF52EA4306D1D1D3
:1007B00081EA030101F000414FF0000070BD50EAF2
:1007C000410606BF1046194652EA430619D094EA7C
:1007D0000C0F02D150EA013613D195EA0C0F05D166
:1007E00052EA03361CBF104619460AD181EA0301BA
:1007F00001F0004141F0FE4141F470014FF0000072
:1008000070BD41F0FE4141F4780170BD70B54FF00C
:10081000FF0C4CF4E06C1CEA11541DBF1CEA13558C
:1008200094EA0C0F95EA0C0F00F0A7F8A4EB05046E
:1008300081EA030E52EA03354FEA013100F0888065
:100840004FEA03334FF0805545EA131343EA12632E
:100850004FEA022245EA111545EA10654FEA0026E3
:100860000EF000419D4208BF964244F1FD0404F59C
:10087000407402D25B084FEA3202B61A65EB0305F8
:100880005B084FEA32024FF480104FF4002CB6EBB5
:10089000020E75EB030E22BFB61A754640EA0C0035
:1008A0005B084FEA3202B6EB020E75EB030E22BF75
:1008B000B61A754640EA5C005B084FEA3202B6EBB6
:1008C000020E75EB030E22BFB61A754640EA9C0075
:1008D0005B084FEA3202B6EB020E75EB030E22BF45
:1008E000B61A754640EADC0055EA060E18D04FEA03
:1008F000051545EA16754FEA06164FEAC30343EAA3
:1009000052734FEAC2025FEA1C1CC0D111F4801F6F
:100910000BD141EA00014FF000004FF0004CB6E768
:1009200011F4801F04BF01430020B4F1FD0C88BF07
:10093000BCF5E06F3FF6AFAEB5EB030C04BFB6EB12
:10094000020C5FEA500C50F1000041EB045170BD05
:100950000EF0004E4EEA113114EB5C04C2BFD4EB32
:100960000C0541EA045170BD41F480114FF0000EB6
:10097000013C90E645EA060E8DE60CEA135594EA32
:100980000C0F08BF95EA0C0F3FF43BAF94EA0C0F35
:100990000AD150EA01347FF434AF95EA0C0F7FF4AA
:1009A00025AF104619462CE795EA0C0F06D152EAFE
:1009B00003353FF4FDAE1046194622E750EA4106E2
:1009C00018BF52EA43067FF4C5AE50EA41047FF4F3
:1009D0000DAF52EA43057FF4EBAE12E74FF0FF3C58
:1009E00006E000BF4FF0010C02E000BF4FF0010C29
:1009F0004DF804CD4FEA410C7FEA6C5C4FEA430CA2
:100A000018BF7FEA6C5C1BD001B050EA410C0CBFF0
:100A100052EA430C91EA030F02BF90EA020F002052
:100A2000704710F1000F91EA030F58BF994208BFB9
:100A300090422CBFD8176FEAE37040F00100704776
:100A40004FEA410C7FEA6C5C02D150EA013C07D1CD
:100A50004FEA430C7FEA6C5CD6D152EA033CD3D018
:100A60005DF8040B704700BF8446104662468C4612
:100A70001946634600E000BF01B5FFF7B7FF002845
:100A800048BF10F1000F01BD4DF808EDFFF7F4FF6E
:100A90000CBF012000205DF808FB00BF4DF808EDF9
:100AA000FFF7EAFF34BF012000205DF808FB00BF1C
:100AB0004DF808EDFFF7E0FF94BF012000205DF83E
:100AC00008FB00BF4DF808EDFFF7CEFF94BF0120F3
:100AD00000205DF808FB00BF4DF808EDFFF7C4FFEC
:100AE00034BF012000205DF808FB00BF4FEA41023F
:100AF00012F5001215D211D56FF47873B3EB625270
:100B000012D94FEAC12343F0004343EA505311F096
:100B1000004F23FA02F018BF404270474FF0000028
:100B2000704750EA013005D111F0004008BF6FF066
:100B3000004070474FF00000704700BF4FEA41028D
:100B4000B2F1E04324BFB3F5001CDCF1FE5C0DD92B
:100B500001F0004C4FEAC0024CEA5070B2F1004F75
:100B600040EB830008BF20F00100704711F0804F78
:100B700021D113F13872BCBF01F00040704741F43D
:100B800080114FEA5252C2F11802C2F1200C10FA41
:100B90000CF320FA02F018BF40F001004FEAC12325
:100BA0004FEAD32303FA0CFC40EA0C0023FA02F3C9
:100BB0004FEA4303CCE77FEA625307D150EA01339F
:100BC0001EBF4FF0FE4040F44000704701F000406F
:100BD00040F0FE4040F40000704700BF53B94AB9EE
:100BE000002908BF00281CBF4FF0FF314FF0FF3035
:100BF00000F072B9ADF1080C6DE904CE00F006F812
:100C0000DDF804E0DDE9022304B070472DE9F04788
:100C1000089E04468846002B4BD18A42154667D968
:100C2000B2FA82F24AB1C2F1200701FA02F320FAC5
:100C300007F7954047EA030894404FEA154E230C06
:100C4000B8FBFEF71FFA85FC0EFB178843EA084342
:100C500007FB0CF1994209D9EB1807F1FF3080F03E
:100C60001B81994240F21881023F2B445B1AA4B2C7
:100C7000B3FBFEF00EFB103344EA034400FB0CFC14
:100C8000A44509D92C1900F1FF3380F00781A44550
:100C900040F2048102382C4440EA0740A4EB0C04E3
:100CA00000271EB1D4400023C6E900433946BDE801
:100CB000F0878B4209D9002E00F0EB800027C6E9AF
:100CC000000138463946BDE8F087B3FA83F7002FB4
:100CD00047D18B4202D3824200F2FA80841A61EB40
:100CE000030301209846002EE0D0C6E90048DDE766
:100CF00002B9FFDEB2FA82F2002A40F08F80491B6F
:100D00004FEA154E1FFA85F80127B1FBFEFC230CB4
:100D10000EFB1C1143EA014308FB0CF1994207D971
:100D2000EB180CF1FF3002D2994200F2CD808446DC
:100D3000591AA3B2B1FBFEF00EFB101443EA0444AF
:100D400008FB00F8A04507D92C1900F1FF3302D2A7
:100D5000A04500F2B6801846A4EB080440EA0C4017
:100D60009FE7C7F1200CBB4022FA0CFE4EEA030EAF
:100D700001FA07F420FA0CF521FA0CF34FEA1E48A9
:100D80002543B3FBF8F92C0C08FB19331FFA8EFA34
:100D900044EA034309FB0AF49C4202FA07F200FA10
:100DA00007F10BD91EEB030309F1FF3080F08780B8
:100DB0009C4240F28480A9F1020973441B1BADB22E
:100DC000B3FBF8F008FB103345EA034400FB0AFAD2
:100DD000A24508D91EEB040400F1FF336BD2A245F3
:100DE00069D90238744440EA0940A0FB0289A4EBA7
:100DF0000A044C45C2464B4654D351D0002E69D00C
:100E0000B1EB0A0564EB030404FA0CFCFD40FC4062
:100E10004CEA0505C6E90054002747E7C2F1200364
:100E200020FA03F7954001FA02F021FA03F34FEAA2
:100E3000154E3843010CB3FBFEF71FFA85F80EFB85
:100E4000173341EA034107FB08F38B4204FA02F42B
:100E500007D9691807F1FF3C2FD28B422DD9023FE9
:100E60002944CB1A81B2B3FBFEF00EFB103341EAEA
:100E7000034100FB08F38B4207D9691800F1FF3CDE
:100E800017D28B4215D902382944C91A40EA0747BC
:100E90003BE73746304609E70746E7E61846FBE6F4
:100EA0004145ABD2B8EB020A69EB0E02013813469A
:100EB000A4E76046E9E7184695E76746D1E781462B
:100EC0007CE702382C4447E7ACF1020C2B442FE7B7
:100ED000384608E73746E9E6704700BF014B186817
:100EE000704700BF0800002008B5FFF7F7FF044B6C
:100EF0005B68C3F30223034AD35CDBB2D84008BD6E
:100F0000001002400000002008B5FFF7E7FF044B87
:100F10005B68C3F3C223034AD35CDBB2D84008BD8D
:100F2000001002400000002030B4036A23F00103E7
:100F30000362056A4268846924F073040B681C43E9
:100F400025F002058B682B43104DA84203D005F510
:100F50000065A84205D123F00803CD682B4323F098
:100F600004030A4DA84203D005F50065A84205D147
:100F700022F440724D6915438A692A4342608461B4
:100F80004A684263036230BC704700BF002C0140D6
:100F900030B4036A23F480730362036A4268C4694D
:100FA00024F073040D682C4323F400738D6843EA26
:100FB0000523124DA84203D005F50065A84206D1CD
:100FC00023F40063CD6843EA052323F480630B4DCB
:100FD000A84203D005F50065A84207D122F440528B
:100FE0004D6942EA05128D6942EA05124260C46108
:100FF0004A68C263036230BC704700BF002C0140E6
:1010000030B4036A23F480530362036A4468C269FC
:1010100022F4E6420D6842EA052223F400538D686B
:1010200043EA0533094DA84203D005F50065A842FF
:1010300004D124F480444D6944EA85144460C261BB
:101040004A680264036230BC704700BF002C014054
:1010500010B4036A046A24F001040462846924F071
:10106000F00444EA021223F00A030B438261036294
:101070005DF8044B704710B4036A23F01003036259
:101080008469036A24F4704444EA023223F0A00322
:1010900043EA0113826103625DF8044B704710B4A8
:1010A000846824F47F4442EA03230B432343836090
:1010B0005DF8044B704710B50468A26822F0700216
:1010C0004B68134323F007030A681343A3604B687C
:1010D000502B1ED00AD9602B21D0702B05D10B6963
:1010E0008A68C9680068FFF7DAFF10BD402BFCD1A1
:1010F00003681C6A1A6A22F001021A620268936984
:1011000023F0F003096943EA0113936103681C6249
:10111000EBE70A6989680068FFF79AFFE5E70A6963
:1011200089680068FFF7A7FFDFE7704738B590F8D8
:101130003C30012B18D00446012580F83C50022396
:1011400080F83D30FFF7B7FF2268D36823F04003F3
:10115000D3602268D36823F48043D36084F83D5081
:10116000002084F83C0038BD0220FCE70368244AD4
:10117000904212D002F5006290420ED0B0F1804F42
:101180000BD0A2F59832904207D002F580629042CF
:1011900003D002F58062904203D123F070034A68C5
:1011A0001343174A904212D002F5006290420ED0CB
:1011B000B0F1804F0BD0A2F59832904207D002F5E3
:1011C0008062904203D002F58062904203D123F402
:1011D0004073CA68134323F080034A6913430360D2
:1011E0008B68C3620B688362054B984203D003F59A
:1011F0000063984201D10B69036301234361704787
:10120000002C0140A8B110B5044690F83D305BB108
:10121000022384F83D30211D2068FFF7A7FF01233A
:1012200084F83D30002010BD80F83C30FFF77DFF92
:10123000EEE701207047000030B4036A23F010038A
:101240000362036A4468826922F4E6420D6842EA56
:10125000052223F020038D6843EA0513114DA842AF
:1012600003D005F50065A84206D123F08003CD68C0
:1012700043EA051323F040030A4DA84203D005F5C5
:101280000065A84207D124F440644D6944EA85040E
:101290008D6944EA8504446082614A68826303621E
:1012A00030BC7047002C014038B590F83C30012B21
:1012B00066D00D460446012380F83C30022380F8B6
:1012C0003D300C2A1AD8DFE802F007191919201945
:1012D00019193419191947000068FFF725FE22680B
:1012E000936943F0080393612268936923F0040330
:1012F00093612268936929690B439361012384F800
:101300003D30002084F83C0038BD0068FFF794FFB2
:101310002268936943F4006393612268936923F41C
:101320008063936122689369296943EA0123936189
:10133000E4E70068FFF72CFE2268D36943F0080356
:10134000D3612268D36923F00403D3612268D3698F
:1013500029690B43D361D1E70068FFF751FE22688A
:10136000D36943F40063D3612268D36923F48063B3
:10137000D3612268D369296943EA0123D361BDE7B8
:101380000220C1E710B4012303FA01F4036A23EA3F
:1013900004030362036A8A40134303625DF8044B4B
:1013A0007047000010B5044601220068FFF7EAFF0D
:1013B0002368094A934203D002F50062934203D1A5
:1013C0005A6C42F400425A642268136843F00103E5
:1013D0001360002010BD00BF002C014010B4042396
:1013E00003FA01F4036A23EA04030362036A8A40EE
:1013F000134303625DF8044B704710B504460422A2
:101400000068FFF7EBFF2268536C43F4004353641A
:101410002268136843F001031360002010BD90F8A8
:101420003C30012B25D0012380F83C30CB6823F4DD
:1014300040738A68134323F480634A68134323F498
:1014400000630A68134323F480530A69134323F4A7
:1014500000534A69134323F480438A69134323F4F6
:101460000043134302685364002380F83C3018465D
:1014700070470220704790F83C30012B22D030B4E6
:10148000012280F83C20022380F83D300468636824
:1014900023F070036360046863680D682B43636026
:1014A0000468A36823F08003A3600468A368496804
:1014B0000B43A36080F83D20002380F83C301846A1
:1014C00030BC704702207047034690F82420012A60
:1014D00020D0012280F824200268906810F0010FCB
:1014E00007D10D48806810F0010F02D10B488242ED
:1014F00008D09A6A42F020029A620120002283F802
:1015000024207047506820F470200968014351601E
:101510000020F3E70220704700280140002401402A
:10152000074AD36823F4E0631B041B0C000200F499
:10153000E060184340F0BF6040F40030D060704776
:1015400000ED00E030B4174BDB68C3F30223C3F1B6
:101550000704042C28BF04241D1D062D18D9033BA5
:101560004FF0FF3505FA04F421EA0401994005FA29
:1015700003F322EA0303194300280BDB0901C9B274
:1015800000F1604000F5614080F8001330BC704706
:101590000023E5E700F00F000901C9B2024B19541E
:1015A000F4E700BF00ED00E014ED00E000F01F02E2
:1015B000400901239340024A42F82030704700BF9F
:1015C00000E100E00138B0F1807F0AD2064B58609C
:1015D000064AF02182F823100020986007221A6042
:1015E00070470120704700BF10E000E000ED00E010
:1015F000042805D0054A136823F0040313607047DC
:10160000024A136843F004031360704710E000E0DF
:10161000704708B5FFF7FCFF08BD0000F0B482B0CA
:1016200000263546ABE0002C63D0012C00D1CE68FB
:10163000FF2B72D88446FF2B72D8AC00DCF8002058
:101640000F27A74022EA070206FA04F42243CCF847
:1016500000204A6812F0805F00F09080654A94692B
:1016600044F001049461926902F001020192019A2E
:10167000AC08A71C604A52F827C005F00302970087
:101680000F22BA402CEA020C5C4A90424ED002F57E
:101690008062904200F08B8002F58062904200F000
:1016A000888002F58062904200F0858002F58062B9
:1016B000904200F0828002F58062904234D006228F
:1016C00035E04F4FBC4214D00BD94E4FBC4210D026
:1016D00007F58037BC420CD0A7F58017BC42A7D1D4
:1016E00007E0A7F58017BC4203D007F58037BC425E
:1016F0009ED18C687CB1012C08D04261082697E706
:10170000CE68083694E7CE680C3691E70261082669
:101710008EE700268CE704268AE700F1040C8AE7AE
:10172000A5F10804A40089E7052200E00022BA40E0
:1017300042EA0C020234304F47F824204A6812F47F
:10174000803F3CD0304C22681A4322604A6812F431
:10175000003F3AD02C4C62681A4362604A6812F427
:10176000801F38D0284CA2681A43A2604A6812F43D
:10177000001F36D0244CE2681343E36001350F2D7F
:1017800035D80122AA400B6813409A42F6D14C6822
:10179000122CB8D095D8022CB2D07FF644AF032CCF
:1017A000B7D0112C7FF444AFCE68043640E7012255
:1017B000BDE70222BBE70322B9E70422B7E7124CD8
:1017C000226822EA03022260C0E70F4C626822EA24
:1017D00003026260C2E70C4CA26822EA0302A26024
:1017E000C4E7094CE26822EA0303E360C6E702B0FB
:1017F000F0BC7047001002400000014000080140AA
:1018000000002110000031100004014083681942DB
:1018100001D1002070470120704712B9090401610D
:10182000704701617047C3685940C1607047704795
:1018300010B50446074B1868074BA3FB003080091E
:10184000FFF7C0FE002221464FF0FF30FFF77AFE7F
:10185000002010BD08000020D34D621008B5074AD3
:10186000136843F0100313600320FFF759FE0020B4
:10187000FFF7DEFFFFF7DBFF002008BD002002407E
:10188000024A136801331360704700BF3001002023
:10189000014B1868704700BF3001002030B583B09D
:1018A0000190FFF7F5FF0546019CB4F1FF3F00D022
:1018B0000134FFF7EDFF401BA042FAD303B030BD67
:1018C0007047000030B482B00023019390F82430B8
:1018D000012B00F08B800246012380F824304B68F6
:1018E000062B29D80568686B03EB8303053B1F248F
:1018F0009C4020EA04000C6804FA03F303436B6382
:101900000B68092B38D91568E86803EB43031E3BC5
:1019100007249C4020EA04008C6804FA03F3034384
:10192000EB600B68103B012B34D90020002382F8B8
:10193000243002B030BC70470C2B0ED80568286BE1
:1019400003EB8303233B1F249C4020EA04000C6824
:1019500004FA03F303432B63D2E70568E86A03EB59
:101960008303413B1F249C4020EA04000C6804FAD6
:1019700003F30343EB62C3E71568286903EB4303F2
:1019800007249C4020EA04008C6804FA03F3034314
:101990002B61C6E713681648834205D0936A43F06B
:1019A000200393620120C1E7986810F4000F1BD157
:1019B000986840F4000098600B68102B01D000205C
:1019C000B4E70C4B1B680C49A1FB03139B0C03EB06
:1019D00083035900019102E0019B013B0193019BAC
:1019E000002BF9D10020A1E700209FE70220A0E70B
:1019F000002401400800002083DE1B4330B583B083
:101A00000023019303689A6812F0010F2ED19A689F
:101A100042F001029A60174B1B68174AA2FB03238E
:101A20009B0C019302E0019B013B0193019B002B66
:101A3000F9D10446FFF72CFF054623689B6813F095
:101A4000010F11D1FFF724FF401B0228F5D9A36A2B
:101A500043F01003A362E36A43F00103E36200234F
:101A600084F82430012002E0002000E0002003B0D0
:101A700030BD00BF0800002083DE1B4390F82430F7
:101A8000012B6AD010B50446012380F82430FFF7FB
:101A9000B5FF024600285BD1A36A23F4407323F00C
:101AA000010343F48073A36223682D498B4227D03E
:101AB000A16A21F48011A162596811F4806F05D0E8
:101AC000A16A21F4405141F48051A162A16A11F44C
:101AD000805F2BD0E16A21F00601E162002184F8E9
:101AE00024106FF0020119602368996801F46021E5
:101AF000B1F5602F1DD0996841F4801199602AE0FA
:101B0000A1F58061496811F4702FD1D0A16A41F428
:101B10008011A1621349496811F4806FD6D0A16A7F
:101B200021F4405141F48051A162CFE70021E162EC
:101B3000D4E70B498B4204D0996841F4A001996025
:101B400009E0A1F58061496811F4702FD3D1F3E762
:101B5000002384F82430104610BD0222104670473E
:101B6000002801400024014038B503689A6812F04B
:101B7000010F01D1002038BD04469A6822F001020D
:101B80009A60FFF785FE054623689B6813F0010FF6
:101B90000ED0FFF77DFE401B0228F5D9A36A43F063
:101BA0001003A362E36A43F00103E3620120E2E76A
:101BB0000020E0E7002800F08A8070B50446836AC0
:101BC000002B36D02046FFF7CFFFA36A13F0100397
:101BD00077D1002875D1A26A22F4885222F002023D
:101BE00042F00202A262626825683A498D4226D01C
:101BF000E1690A43E66842EA4602A168B1F5807FDE
:101C000027D0012922D06169012925D0696821F4F2
:101C100069410B436B6021688D682F4B2B40134348
:101C20008B60A368B3F5807F27D0012B25D00021DE
:101C300026E0C36280F82430FFF742FEC2E7E16984
:101C4000B1F5402FD5D14FF40021D2E74FF4807386
:101C5000D9E74FF48073D6E736B9A169013943EA71
:101C6000413343F40063D1E7A16A41F02001A1624E
:101C7000E16A41F00101E162C8E72369013B19050E
:101C80002568EB6A23F470030B43EB6223689968C1
:101C9000124B0B409A420BD0A36A23F0120343F07D
:101CA0001003A362E36A43F00103E36201200DE045
:101CB0000023E362A36A23F0030343F00103A3625A
:101CC00004E0A36A43F01003A362012070BD012069
:101CD000704700BF003C0140FDF7E1FFFE0E1FFF13
:101CE0002DE9F84305460268136923F44053C1689F
:101CF0000B4313618368026913434269134301680C
:101D0000CA6822F4B05222F00C021343CB6002687E
:101D1000536923F4407381690B4353610268594B43
:101D20009A4257D0FFF7E0F800EB800000EB80000C
:101D30006C68A400B0FBF4F4534FA7FB04346409AF
:101D40002601FFF7D1F800EB800000EB80006C6803
:101D5000A400B0FBF4F9FFF7C7F800EB800000EB3C
:101D600080006C68A400B0FBF4F4A7FB04346409A1
:101D70004FF0640808FB149424013234A7FB0434A8
:101D8000640904F0F0043444FFF7AEF800EB80007F
:101D900000EB80006E68B600B0FBF6F6FFF7A4F823
:101DA00000EB800000EB80006B689B00B0FBF3F061
:101DB000A7FB0030400908FB10684FEA081808F13B
:101DC0003208A7FB0837C7F343172B6827449F60E7
:101DD000BDE8F883FFF798F800EB800000EB800087
:101DE0006C68A400B0FBF4F4274FA7FB043464092B
:101DF0002601FFF789F800EB800000EB80006C689B
:101E0000A400B0FBF4F9FFF77FF800EB800000EBD3
:101E100080006C68A400B0FBF4F4A7FB04346409F0
:101E20004FF0640808FB149424013234A7FB0434F7
:101E3000640904F0F0043444FFF766F800EB800016
:101E400000EB80006E68B600B0FBF6F6FFF75CF8BA
:101E500000EB800000EB80006B689B00B0FBF3F0B0
:101E6000A7FB0030400908FB10684FEA081808F18A
:101E70003208A7FB0837C7F343172B6827449F6036
:101E8000A6E700BF003801401F85EB51704758B3EB
:101E900010B5044690F839300BB3242384F8393058
:101EA0002268D36823F40053D3602046FFF718FF5D
:101EB0002268136923F4904313612268536923F065
:101EC0002A0353612268D36843F40053D36000208F
:101ED000E063202384F8393084F83A3010BD80F86C
:101EE0003830FFF7D3FFD8E70120704782B00023D6
:101EF000019300932C4A136843F0010313602A4BAB
:101F00001B6803F002030093019B01330193009BC4
:101F100023B9019A4FF6FF739A42F0D1224B1B6806
:101F200013F0020F06D001230093009B012B04D075
:101F300002B0704700230093F7E71B4B5A685A60C2
:101F40005A6822F460525A605A685A605A6822F4F9
:101F5000E0625A605A6842F480625A605A6822F01D
:101F6000604222F47C125A605A6842F0005242F4F5
:101F700080225A601A6842F080721A600A4B1B680D
:101F800013F0007FFAD0084B5A6822F003025A601F
:101F90005A6842F002025A60034B5B6803F00C037C
:101FA000082BF9D1C4E700BF0010024008B5FFF7C5
:101FB0009DFF08BD10B5164CD4F8883043F470036B
:101FC000C4F88830134B1A6842F001021A6059684D
:101FD000114A0A405A601A6822F0847222F4803250
:101FE0001A601A6822F480221A605A6822F0684245
:101FF00022F47F025A60196B084A0A401A634FF4B0
:102000001F029A60FFF7D2FF4FF00063A36010BD7C
:1020100000ED00E0001002400C00FFE800FFFEFEB3
:1020200030B597B01F4BDA6942F48022DA61DA6981
:1020300002F480220092009A5A6942F001025A6129
:102040005B6903F001030193019B174D06954FF463
:10205000E13307930024089409940A9408230B930E
:102060000C940D9406A8FFF712FF6B6943F08003F0
:102070006B614FF480630293012304930223039363
:102080000323059302A90948FFF7C8FA084B1C600F
:10209000084A9A605C6090221A601C3B70225A6069
:1020A00017B030BD0010024000480040000C014055
:1020B0001C000240044800402DE9F04F89B07B4BE2
:1020C0009A6942F004029A619A6902F0040201924C
:1020D000019A9A6942F008029A619A6902F008022C
:1020E0000292029A9A6942F010029A619B6903F087
:1020F00010030393039B002305930693022707977E
:102100004FF0200A0DEB0A0444F810AD2146684850
:10211000FFF784FA4023049321466548FFF77EFACF
:102120008025049521466248FFF778FA4FF48063D2
:10213000049321465F48FFF771FA4FF4006304935C
:1021400021465C48FFF76AFA4FF480560496214610
:102150005848FFF763FA049621465748FFF75EFA9E
:10216000049721465448FFF759FA4FF00108CDF87B
:1021700014804FF00409CDF8109021464C48FFF729
:102180004DFA1026049621464B48FFF747FACDF842
:1021900010A021464848FFF741FA03230593CDF8E4
:1021A000108021464348FFF739FACDF810802146C8
:1021B0004148FFF733FA4FF0080BCDF810B0214635
:1021C0003C48FFF72BFA049721463A48FFF726FAD6
:1021D000049621463748FFF721FACDF810A0214692
:1021E0003448FFF71BFACDF8109021463148FFF72D
:1021F00015FACDF810B021462F48FFF70FFACDF8A9
:10220000109021462C48FFF709FA059740230493C4
:1022100021462848FFF702FA049521462548FFF792
:10222000FDF94FF48079CDF8109021462148FFF751
:10223000F5F9049521462048FFF7F0F9CDF8108014
:1022400021461B48FFF7EAF9049721461848FFF793
:10225000E5F9CDF8109021461748FFF7DFF94FF464
:102260000073049321461448FFF7D8F94FF48063B4
:10227000049321461048FFF7D1F94FF4005304931B
:1022800021460B48FFF7CAF94FF4804304932146D7
:102290000748FFF7C3F94FF400430493214604486D
:1022A000FFF7BCF909B0BDE8F08F00BF0010024095
:1022B000000C014000100140000801402DE9F04FE2
:1022C00099B0794B9A6942F400629A619A6902F472
:1022D00000620192019A9A6942F400529A619B69E4
:1022E00003F400530293029B704E714F3760002439
:1022F00074604FF02008C6F80880DFF8BCB1DBF846
:102300000030DFF8B8A1AAFB0323DB0AF3603461D5
:102310007461B4613046FEF775FF1023169317946D
:1023200016A93046FFF7A7F860230F931094119475
:1023300008231293139414944FF4007315932246B8
:102340000FA93046FEF7B0FF04220FA93046FEF772
:10235000ABFF08220FA93046FEF7A6FF4FF400633B
:1023600008934FF4806309930A94CDF82C800C9461
:102370000D940E940DEB08013046FFF750F84D4DCB
:10238000DFF83C91C5F800906C60C5F80880DBF878
:102390000030AAFB033A4FEADA23EB602C616C6150
:1023A000AC612846FEF72EFFCDF8588080231793A6
:1023B00016A92846FFF75FF8049418A9052341F8E9
:1023C000543D2846FEF7B2FE60230F9310941194FB
:1023D00008231293139414944FF400731593224618
:1023E0000FA92846FEF760FF04220FA92846FEF732
:1023F0005BFF08220FA92846FEF756FF4FF4006343
:1024000008934FF4806309930A94CDF82C800C94C0
:102410000D940E940DEB08012846FFF700F8D9F84B
:10242000443023F40043C9F844307B6C23F4004368
:102430007B6421462846FEF7B5FF04212846FEF7B7
:10244000B1FF08212846FEF7ADFF21462846FEF7DA
:10245000D4FF04212846FEF7D0FF08212846FEF7C6
:10246000CCFF21463046FEF79DFF04213046FEF7A3
:1024700099FF08213046FEF795FF21463046FEF7CA
:10248000BCFF04213046FEF7B8FF08213046FEF7B6
:10249000B4FF2B6801221A633268136843F001030A
:1024A000136019B0BDE8F08F00100240FC0100205D
:1024B000002C01408C03002008000020D34D621046
:1024C000003401402DE9F04186B0424EB36943F437
:1024D0000073B361B36903F400730093009B3E4C37
:1024E0003E4B23604FF48073A3600025E560656177
:1024F0004FF44023E36165604FF00508C4F8108095
:102500002046FFF757FB364A536843F48023536055
:1025100006A94FF4C02341F8043D2046FEF7D4FF3E
:10252000012304930E220292039302A92046FFF78F
:10253000C9F902950227039702A92046FFF7C2F9BD
:1025400004970B2702970323039302A92046FFF762
:10255000B9F90C2302930423039302A92046FFF741
:10256000B1F90723049310230293CDF80C8002A93C
:102570002046FFF7A7F92268936843F4000343F469
:1025800080739360936843F001039360736943F031
:1025900001037361736903F001030193019B114B04
:1025A0001D60C3F80480104A9A60104ADA6040F651
:1025B000A2221A601A6842F001021A602A462946CD
:1025C0003846FEF7BFFF3846FEF7F0FF06B0BDE81D
:1025D000F08100BF00100240C4020020002401402E
:1025E00000000140080002404C2401403803002054
:1025F000F0B585B0284B9A6942F480629A619B6974
:1026000003F480630093009B244C254B23604FF41C
:102610008073A3600023E36063614FF46022E26192
:102620006360052626612046FFF7C4FA0123039361
:102630000F220192029301A92046FFF743F90D23CF
:1026400001930225029501A92046FFF73BF9039566
:102650000A2301930327029701A92046FFF732F9C5
:102660000195042302930DEB03012046FFF72AF99D
:10267000072303930197029601A92046FFF722F949
:1026800023689A6842F480729A609A6842F0010264
:102690009A6005B0F0BD00BF001002407801002034
:1026A0000028014010B5154B1C682046FDF71AFFA5
:1026B00000220023FEF7F2F958B16442132CCCBF7C
:1026C00000240124C4B100240D4B1C700D4B1C7060
:1026D0000AE0132CCCBF00240124F3E70A4B1C7042
:1026E0006420FFF7DBF80134072CF7DD00222021FE
:1026F0000648FFF792F8FEE710BD00BF78040020FF
:102700000E010020140100200D01002000080140EE
:1027100008B5FEF7E3FB084BA3FB00308009FEF78A
:1027200051FF0420FEF764FF002211464FF0FF30F6
:10273000FEF708FF08BD00BFD34D62100000000087
:10274000D0B52DED028B82B0FFF788F88E4CA369CF
:1027500043F00103A361A36903F001030193019B0B
:102760000320FEF7DDFE002211466FF00B00FEF79E
:10277000E9FE002211466FF00A00FEF7E3FE002298
:1027800011466FF00900FEF7DDFE002211466FF0E2
:102790000400FEF7D7FE002211466FF00300FEF79B
:1027A000D1FE002211466FF00100FEF7CBFE0022A1
:1027B00011464FF0FF30FEF7C5FEFFF7A9FF636932
:1027C00023F001036361FFF777FCFFF777FDFFF765
:1027D00079FEFFF70DFFFFF723FC012220216B4854
:1027E000FFF71BF86A48FFF749F96A48FFF746F90F
:1027F000694B032283F86020012283F86120674837
:102800000360674AC260674A4260674A8260674CF9
:102810002360674BE360674B6360674BA36000F026
:102820009BFD204600F098FD082405E0634B1C70DA
:102830006420FFF733F8013C002CF7DA5F4B0022ED
:102840001A70012204215E48FEF7E7FF5D4B4FF04E
:102850007E521A605C4B1B8A9BB207EE903AF8EEF0
:10286000678A5A4B01221A70CAE018EE900AFDF7E7
:102870004BFE41A3D3E90023FDF79EFE06460F461B
:10288000514C208A80B207EE900AF8EE677A17EE74
:10289000900AFDF739FE3AA3D3E90023FDF78CFE39
:1028A00002460B4630463946FDF7D0FCFEF746F9A6
:1028B00008EE900A9FED468A38EEC88ADFED457A29
:1028C00028EE278ADFED447A38EE278A6421022039
:1028D00000F0A6FA6421032000F0A2FAA18909B24F
:1028E000042000F09DFA3D4BD3ED007A9FED3C7A39
:1028F00067EE877AFDEEE77A17EE903A19B2052077
:1029000000F08EFAFDEEE87A17EE903A19B2062042
:1029100000F086FABDEEC88A18EE103A19B2072008
:1029200000F07EFA00F082FABBE0284B00221A7019
:1029300002211648FEF76AFF0028F9D1FFF7B2FE20
:10294000B6E06442132C40F3CD80DFED267AB4EE7E
:10295000E78AF1EE10FA4BD5DFED237AB4EEE78A81
:10296000F1EE10FA44DD154B05221A701F4B0622BA
:102970001A7042E0AFF30080AE47E17A14AEEF3F49
:102980007B14AE47E17A843F00100240000801400A
:10299000C4020020780100202800002084040020C8
:1029A000EC030020540400201004002064040020E4
:1029B0002C04002024040020D80300200D01002056
:1029C000000C0140D0030020380300201401002037
:1029D00000E0CE44083748BE33330F420C000020DD
:1029E0000000C8420000C44152B8BC410E010020A2
:1029F0000023434A1370434A1370434B00221A606A
:102A00000520FEF74BFF414C2068FDF76BFD38A316
:102A1000D3E90023FDF7D0FD06460F463C4B18686E
:102A2000FDF760FD34A3D3E90023FDF7C5FD0246A1
:102A30000B4630463946FDF709FCFEF757F8206093
:102A4000344C2068FDF74EFD29A3D3E90023FDF7A0
:102A5000B3FD06460F46304B1868FDF743FD26A32D
:102A6000D3E90023FDF7A8FD02460B463046394660
:102A7000FDF7ECFBFEF73AF82060284B3C221A6089
:102A8000274B6FF03B021A601F4B1A68254BA3FBC4
:102A90000213DB0803EB830303EB83039A423FF447
:102AA000E4AE02212048FEF7B1FE00287FF43DAFDE
:102AB0001E4B93ED008ADFED1E7AB4EEE78AF1EE4D
:102AC00010FA7FF542AF134B1C682046FDF70AFD54
:102AD00000220023FDF7E2FF00287FF432AF132C21
:102AE0003FF733AFFFF7DEFD87E700BFAFF30080AE
:102AF000CDCCCCCCCCCCEC3F9A9999999999B93F53
:102B00000D0100200E010020CC03002060040020F5
:102B100080040020780400205C04002020010020B4
:102B20001C0100201F85EB51000801400C00002013
:102B300052B8BC419A4B02225A609A4B1B68B3F5BB
:102B40007A7F44DB10B5984B1A68984BA3FB0213AD
:102B50009B094FF47A7101FB1323CBB99449D1ED52
:102B6000007A9FED947A27EE877A934B9B899BB2EC
:102B700007EE903AF8EE677ADFED906A67EEA67A94
:102B8000DFED8F6A67EEA67A77EE277AC1ED007ADD
:102B90000132854B1A608B4B1C78002C4CD08A4B31
:102BA000A3FB02131B0B894909780131B3FBF1F038
:102BB00001FB1033002B3FD1B2FBF4F304FB1322D3
:102BC000002A3ED110218248FEF72DFE39E0013364
:102BD000744A1360784A90887E490B68034403EB7B
:102BE000D3735B100B60D0887B490B68034403EB05
:102BF000D3735B100B60108878490B68034403EBB8
:102C0000D3735B100B60508875490B68034403EB6A
:102C1000D3735B100B60508972490B68034403EB5C
:102C2000D3735B100B6011896F4A13680B4403EB7D
:102C3000D3735B1013607047002210216448FEF7C5
:102C4000ECFD6A4B1B7803B110BD684B01221A7072
:102C5000674B9A6812F0200F0CBF012000209A6881
:102C600012F0800F0CBF012100219B6813F0400F70
:102C70000CBF012200225F4B187059709A705E4A97
:102C800012685A605D4B186800F066F95C4B196871
:102C90005A689B6801F57A7040F2C674A04203DC62
:102CA00009280FDD81B201E040F2C6715548416349
:102CB00002F57A7140F2C670814205DC092911DD06
:102CC0008AB203E00A21F1E740F2C6724D498A63F5
:102CD00003F57A7240F2C6718A4205DC092A33DDB7
:102CE00093B203E00A22F1E740F2C673454AD36388
:102CF000454B9A6812F4805F0CBF012000209A684F
:102D000012F4806F0CBF012100219B6813F4006F47
:102D10000CBF012200223D4B187059709A703C4A3A
:102D200012685A603B4B186800F016F93A4B196864
:102D30005A689B6801F57A7040F2C674A04205DCBF
:102D4000092811DD81B203E00A23CFE740F2C67102
:102D50003248416302F57A7140F2C670814205DC67
:102D6000092911DD8AB203E00A21F1E740F2C672B7
:102D70002A498A6303F57A7240F2C6718A4205DCF9
:102D8000092A0BDD93B203E00A22F1E740F2C67391
:102D9000224AD363154B00221A7055E70A23F7E73E
:102DA000000002401801002010010020D34D6210E5
:102DB0000C000020A4707D3F38030020B29CD13C61
:102DC0000AD7233C0D0100205917B7D10E0100206E
:102DD00000080140180000201C00002020000020F6
:102DE0002400002010000020140000200C0100200E
:102DF000000C0140540400201C010020F43B00089A
:102E00001004002000340140001001402404002080
:102E100020010020F83B0008D8030020002C0140CE
:102E2000014B23F810107047F8040020F0B587B06C
:102E30001A4F64220021384600F0BFFA18490A8868
:102E4000B1F802C0888800B2CC8824B20D892DB2B6
:102E50004E8936B28B891BB2C98909B20591049398
:102E600003960295019400900FFA8CF312B20D496B
:102E7000384600F0ABFA0C4B5B686BB90A4C236820
:102E800023F0010323603846FDF782F96060E760B4
:102E9000236843F00103236007B0F0BD94040020D1
:102EA000F8040020FC3B00081C0002407047FEE7CD
:102EB000FEE7FEE7FEE770477047704708B5FEF78C
:102EC000DFFCFEF7A6FB08BD10B588420CDD401AFA
:102ED000B0FBF2F49C420CD3DCB2013CE4B24FF004
:102EE0000043029A136002E00024029B1C6020460B
:102EF00010BDE4B202FB14010023C8074908FDF726
:102F00006DFE029B1860F2E7D0B4431C32F9133017
:102F100032F910401A1BD717A1FB022301FB07331C
:102F2000D00F40EA4300A4B214FA80F000B2D0BC43
:102F30007047CB0FB3EBD07F08D090FBF1F301FBD0
:102F400013032BB990FBF1F0184470470023F9E705
:102F50004FF0FF33F6E700002DE9F04F87B0066829
:102F6000C4684768D0F8089039788B00DBB278786D
:102F70004200D2B21344DBB2BA7813445FFA83FB47
:102F8000D7F804A0BAF1000F1BDB257F637F414017
:102F90004A406A405A40A37F9A422ED094F9193091
:102FA0002376B74B5B4493F90A22D3B2A17E5B1A16
:102FB0005BB2012B08D013F1050F05D0FF23637618
:102FC00004E0CAF1000AE0E701236376A276B4F9CF
:102FD0001430E3819AB2E18A521A2282E3824FF0DE
:102FE0000108B6F95E3043451BDB94F9193094F9BA
:102FF000182093420DD0002314E0B4F91230B6F932
:103000005E80434500DA984608F101080FFA88F817
:10301000E7E7356803FB05F3B4F90E5093FBF5F3CE
:1030200000E000237168C1F16405626803FB01F3ED
:1030300002FB0535934B83FB0523ED17D5EB631599
:103040007CD42A46F36893427ADC0123E377B4F90F
:103050001030002B7ADBB6F95A1099427ADC012342
:1030600084F8203094F91B1096F86030002B79D149
:103070004FF0FF33E3768B4203D011B92160C9F8DA
:1030800010105BBB94F9191001296DD03B789B009F
:10309000DBB278784000C0B20344DBB2B8780344B6
:1030A000774850FA83F393F80A02013040B2C8EB34
:1030B000081C4FEA8C03B4F90EC093FBFCF3C0EB81
:1030C00000104FEA800C01FB03C1C9F8101096F8FC
:1030D000613013B1336993424BDB216096F8603065
:1030E000022B00F08A80032B00F0A880012B63D014
:1030F00094F91930002BC0F2CD80002BD4BF0022F0
:1031000001227B68002BC0F2C880002BD4BF0020B6
:10311000012096F8601029B17169514502DA8242A6
:1031200000F0BE80564A5A4492F90A02052800F37C
:10313000CD80002880F2CB800020C8E06A4281E781
:10314000B368934283DB0023E37780E79BB25B4263
:103150001BB280E7B6F95C10994283DB002384F848
:1031600020307FE7002385E7454B5B4493F90A0253
:103170009DE7B169F26905AB00930A23521A5046E4
:10318000FFF7A2FE06F144020599FFF7BDFE94F990
:1031900019309BB210FB03F0D9F8103003FA80F31A
:1031A0004FF4B47102931846FFF7C3FE364B029AF0
:1031B00003FB0020206091E7206805AB0093062305
:1031C0003C220021FFF780FE0390059B2C4A0293CE
:1031D0001946FFF799FE2081294B03F10E0202994F
:1031E0000398FFF791FE6081254B03F11C020299C1
:1031F0000398FFF789FEA0817AE7206805AB00936A
:1032000024230A220021FFF75FFE0390059B1F4A3B
:1032100002931946FFF778FE20811C4B03F14A0206
:1032200002990398FFF770FE6081184B03F1940236
:1032300002990398FFF768FEA08159E7206805AB63
:10324000009324230A220021FFF73EFE0390059BF2
:103250000F4A02931946FFF757FE20810C4B03F1EA
:103260004A0202990398FFF74FFE6081084B03F171
:10327000940202990398FFF747FEA08138E700BF48
:10328000283C00081F85EB5198FEFFFF523C0008C8
:10329000303D00084FF0FF3233E74FF0FF3038E7A2
:1032A000E27F002A3FF43EAF94F82020002A7FF40A
:1032B00039AFB4F9081001FB03F1B4F90A2002FB9D
:1032C00003F2B4F90C0000FB03F31AE0052000EB55
:1032D00040001F4E00F1F00206EB4202B2F9061068
:1032E00001FB03F100F1F10206EB4202B2F9062004
:1032F00002FB03F2F23006EB4000B0F9060000FBDF
:1033000003F3144880FB01C6C917C1EBA611C9F825
:10331000001080FB0261D217C2EBA112C9F8042091
:103320003A7822777A786277BA78A277A4F812800E
:10333000A4F81480656080FB0312DB17C3EBA213B3
:10334000C9F80830C9F80C5007B0BDE8F08F00BFCD
:10335000283C0008D34D62100268C368FF21D9766B
:10336000B2F95E105982B2F95E10D982B2F95E20CC
:10337000DA817047002103E00A4B5B584350043167
:1033800009480A4B42189A42F6D3094A02E0002340
:1033900042F8043B074B9A42F9D3FEF70BFEFFF7C6
:1033A000CFF97047983E000800000020F000002090
:1033B000F00000200C050020FEE702440346934283
:1033C00000D1704703F8011BF9E700000EB400B507
:1033D0009CB01DAB029006906FF000410948079128
:1033E0000491094953F8042B05910068019302A93F
:1033F00000F066F8029B00221A701CB05DF804EB26
:1034000003B070478C0000200802FFFF2DE9F04751
:103410008E689E4282460C469046994637D88A89E5
:1034200012F4906F31D0256809696F1A656902231B
:1034300005EB450595FBF3F509F101033B449D427E
:1034400038BF1D46530530D5294600F02BFB0646F4
:1034500050B90C23CAF80030A38943F04003A3817C
:103460004FF0FF30BDE8F0873A46216900F0A8FA36
:10347000A38923F4906343F08003A38126616561EF
:103480003E44ED1B2660A5604E464E4500D94E4693
:1034900032464146206800F09EFAA3689B1BA36059
:1034A00023681E4426600020DCE72A4600F054FB17
:1034B00006460028E2D12169504600F0A5FAC8E787
:1034C0002DE9F04F1D468B891F069DB080460C46A6
:1034D00016460FD50B696BB9402100F0E3FA206066
:1034E000206128B90C23C8F800304FF0FF30C8E045
:1034F000402363610023099320238DF82930302372
:103500008DF82A3003954FF0010B37463D4615F8EC
:10351000013B0BB1252B3ED1B7EB060A0BD053462E
:10352000324621464046FFF771FF013000F0A4808B
:10353000099B534409933B78002B00F09D800023A6
:103540004FF0FF32CDE90523049307938DF85330F4
:103550001A932F46052217F8011B5048FCF720FE4E
:10356000049BD0B9D90644BF20228DF853201A07F6
:1035700044BF2B228DF853202A782A2A15D0079A87
:103580002F4600200A25394611F8013B303B092B14
:103590004DD9B8B10FE02F46B8E7404A801A0BFA70
:1035A00000F0184304903D46D3E7039A111D1268BA
:1035B0000391002A01DB079204E0524243F0020328
:1035C000079204933B782E2B0CD17B782A2B33D196
:1035D000039B1A1D1B680392002BB8BF4FF0FF33EB
:1035E000023705932E4D397803222846FCF7D8FD83
:1035F00038B14023401B03FA00F0049B034301371A
:103600000493397827488DF8281006227E1CFCF791
:10361000C7FD002838D0244B13BB039B073323F08E
:10362000070308330393099B4B4409936DE705FB9C
:10363000023201200F46A6E7002301370593194601
:103640000A25384610F8012B303A092A03D9002BF5
:10365000C8D00591C6E705FB012101230746F0E725
:1036600003AB00932246114B04A94046AFF3008000
:10367000B0F1FF3F8146D6D1A3895B063FF535AF58
:1036800009981DB0BDE8F08F03AB00932246074BAD
:1036900004A9404600F082F8EAE700BF3A3E00087D
:1036A000403E0008443E0008000000000D340008C1
:1036B0002DE9F04791461F468A680B69DDF82080A6
:1036C0009342B8BF1346C9F8003091F8432006462C
:1036D0000C4612B10133C9F800302368990642BF85
:1036E000D9F800300233C9F80030256815F0060516
:1036F00007D104F1190AE368D9F800209B1AAB42FC
:1037000028DC94F843302268003318BF0123920666
:103710002DD404F1430239463046C047013020D051
:103720002368E568D9F8002003F00603042B08BFDE
:10373000AD1AA36822690CBF25EAE57500259342FE
:10374000C4BF9B1AED184FF000091A344D451AD129
:10375000002008E00123524639463046C047013078
:1037600003D14FF0FF30BDE8F0870135C3E7E11822
:103770005A1C302081F84300224494F8451082F806
:1037800043100233C5E70123224639463046C0477D
:103790000130E6D009F10109D8E700002DE9F04336
:1037A00001F1430C0C46097E85B06E29174606468A
:1037B00098460C9A00F0B38022D8632936D00AD8F4
:1037C000002900F0B980582900F0838004F14205F7
:1037D00084F8421032E0642901D06929F6D12068CA
:1037E0001368050603F104012AD51B681160002B3C
:1037F00003DA2D225B4284F843206F480A2239E025
:10380000732900F09D8008D86F2920D07029DDD160
:10381000236843F02003236003E0752917D078293B
:10382000D4D1782384F84530644855E01368191DD5
:103830001B68116004F1420584F8423001238CE0DA
:103840001B68116010F0400F18BF1BB2CFE7136860
:103850002568181D1060280601D51B6802E068065F
:10386000FBD51B8854486F2914BF0A220822002167
:1038700084F843106568A560002DC0F2958021682A
:1038800021F004012160002B3DD1002D40F08E80FD
:103890006546082A0BD12368DB0708D523696268CF
:1038A0009A42DEBF302305F8013C05F1FF35ACEB51
:1038B00005032361CDF800803B4603AA214630462C
:1038C000FFF7F6FE01304DD14FF0FF3005B0BDE8F7
:1038D000F083394884F84510136821681D1D1B6862
:1038E00015600A060BD5CA0744BF41F020012160CC
:1038F0001BB9226822F0200222601022B7E74D0691
:1039000048BF9BB2EFE76546B3FBF2F102FB113310
:10391000C35C05F8013D0B460029F5D1B9E71368F2
:1039200025686169181D106028061B6801D519609B
:1039300002E06A06FBD51980002323616546B9E7DA
:103940001368191D11601D68626800212846FCF784
:1039500027FC08B1401B606063682361002384F882
:103960004330A7E723692A4639463046C04701302D
:10397000AAD023689B0713D4E068039B9842B8BF82
:103980001846A3E701234A4639463046C04701306E
:103990009AD00135E368039A9B1AAB42F2DCEBE75D
:1039A000002504F11909F5E7002BACD1037884F860
:1039B000423004F142056CE74B3E00085C3E0008D3
:1039C00010B5431E0A44914200D110BD11F8014BBD
:1039D00003F8014FF7E7884210B501EB020307D85F
:1039E000421E99420AD011F8014B02F8014FF8E744
:1039F0008342F5D98118D21AD34200D110BD13F8F1
:103A0000014D01F8014DF7E738B50546002945D0CD
:103A100051F8043C0C1F002BB8BFE41800F0D2F89A
:103A20001F4A1368104633B9636014602846BDE826
:103A3000384000F0C8B8A3420CD9216862189342FC
:103A400004BF1A685B68636004BF52182260046098
:103A5000ECE713465A680AB1A242FAD91968581815
:103A6000A0420BD120680144581882421960DDD170
:103A7000106852685A6001441960D7E702D90C23D4
:103A80002B60D3E7206821188A4204BF116852686E
:103A9000626004BF091821605C60C7E738BD00BFE1
:103AA0002401002070B5CD1C25F0030508350C2D30
:103AB00038BF0C25002D064601DBA94203D90C2393
:103AC0003360002070BD00F07DF8214A1468214663
:103AD00091B9204C23681BB9304600F063F8206090
:103AE0002946304600F05EF8431C24D10C23336095
:103AF000304600F068F8E4E70B685B1B18D40B2B2A
:103B00000FD90B60CD50CC18304600F05CF804F1B2
:103B10000B00231D20F00700C31AD3D05A42E250F5
:103B2000D0E78C424B6816BF636013600C46EBE72E
:103B30000C464968CCE7C41C24F00304A04205D01D
:103B4000211A304600F02EF80130CFD02560DBE797
:103B50002401002028010020F8B5074614460E462F
:103B600021B91146BDE8F840FFF79CBF22B9FFF725
:103B70004BFF25462846F8BD00F026F8A0420FD29C
:103B800021463846FFF78EFF05460028F2D0314621
:103B90002246FFF715FF31463846FFF735FFE9E7C4
:103BA0003546E7E738B5064C00230546084623604E
:103BB00000F012F8431C02D1236803B12B6038BD1A
:103BC000080500207047704751F8043C181F002B6F
:103BD000BCBF0B58C0187047044A05491368002B36
:103BE00008BF0B4618441060184670472C0100208F
:103BF0000C0500208404002064040020313A25696B
:103C000020323A256920333A256920343A25692043
:103C1000353A256920363A256920373A2569203812
:103C20003A25690D0A000000E803E803E80318FCE0
:103C300018FC18FCE80318FC18FCE803E803E80388
:103C400018FC18FCE80318FC18FC18FCE803E8034F
:103C5000E803F4018302FE026203AC03D903E80324
:103C6000D903AC036203FE028302F4015601AE00E5
:103C7000000052FFAAFE0CFE7DFD02FD9EFC54FCDE
:103C800027FC18FC27FC54FC9EFC02FD7DFD0CFE6D
:103C9000AAFE52FF0000AE005601F40118FC27FCFA
:103CA00054FC9EFC02FD7DFD0CFEAAFE52FF0000AE
:103CB000AE005601F4018302FE026203AC03D90395
:103CC000E803D903AC036203FE028302F401560148
:103CD000AE00000052FFAAFE0CFE7DFD02FD9EFC20
:103CE00054FC27FC18FCF4015601AE00000052FF02
:103CF000AAFE0CFE7DFD02FD9EFC54FC27FC18FC78
:103D000027FC54FC9EFC02FD7DFD0CFEAAFE52FF2A
:103D10000000AE005601F4018302FE026203AC0310
:103D2000D903E803D903AC036203FE028302F40162
:103D30002D03B103E803E403C2039E0390039E0333
:103D4000C203E403E803B1032D0357023F0100005F
:103D5000C1FEA9FDD3FC4FFC18FC1CFC3EFC62FC20
:103D600070FC62FC3EFC1CFC18FC4FFCD3FCA9FD63
:103D7000C1FE00003F0157022D0370FC62FC3EFCB7
:103D80001CFC18FC4FFCD3FCA9FDC1FE00003F0148
:103D900057022D03B103E803E403C2039E0390031B
:103DA0009E03C203E403E803B1032D0357023F015E
:103DB0000000C1FEA9FDD3FC4FFC18FC1CFC3EFC1E
:103DC00062FC70FC2D0357023F010000C1FEA9FDFB
:103DD000D3FC4FFC18FC1CFC3EFC62FC70FC62FC3B
:103DE0003EFC1CFC18FC4FFCD3FCA9FDC1FE0000EE
:103DF0003F0157022D03B103E803E403C2039E030E
:103E000090039E03C203E403E803B1032D03E80318
:103E100018FC0000E803000018FC0000E80318FC90
:103E200018FCE803000018FC0000E803000018FC80
:103E3000E8030005030401000200232D302B2000BD
:103E4000686C4C0065666745464700303132333454
:103E500035363738394142434445460030313233F4
:103E600034353637383961626364656600000000B6
:103E7000F8B500BFF8BC08BC9E467047F8B500BF57
:083E8000F8BC08BC9E46704727
:083E880084CDFF7F0100000062
:043E900075010008B0
:043E940051010008D0
:103E9800000000000102030400A24A040000E041FF
:103EA800D0070000D0070000D0070000D0070000AE
:103EB800D0070000D0070000AB2900000A0000006E
:103EC8000F0000001E0000009001000046000000E6
:103ED8000000000064000000C80000002C01000081
:103EE80090010000F401000058020000BC0200002C
:103EF8002003000084030000E80300000000000025
:103F08000000000000000200030005000900100086
:103F1800190032001400DC050301000090000020A5
:103F28000000000000000000000000000000000089
:103F38000000000000000000000000000000000079
:103F48000000000000000000000000000000000069
:103F58000000000000000000000000000000000059
:103F68000000000000000000000000000000000049
:103F78000000000000000000000000000000000039
:040000050800337547
:00000001FF
